{
  "_format": "hh-sol-artifact-1",
  "contractName": "EscrowFactory",
  "sourceName": "contracts/EscrowFactory.sol",
  "abi": [
    {
      "anonymous": false,
      "inputs": [
        {
          "indexed": true,
          "internalType": "address",
          "name": "escrowAddress",
          "type": "address"
        },
        {
          "indexed": true,
          "internalType": "address",
          "name": "client",
          "type": "address"
        },
        {
          "indexed": true,
          "internalType": "address",
          "name": "freelancer",
          "type": "address"
        },
        {
          "indexed": false,
          "internalType": "uint256",
          "name": "projectId",
          "type": "uint256"
        }
      ],
      "name": "EscrowCreated",
      "type": "event"
    },
    {
      "anonymous": false,
      "inputs": [
        {
          "indexed": true,
          "internalType": "address",
          "name": "previousOwner",
          "type": "address"
        },
        {
          "indexed": true,
          "internalType": "address",
          "name": "newOwner",
          "type": "address"
        }
      ],
      "name": "OwnershipTransferred",
      "type": "event"
    },
    {
      "inputs": [
        {
          "internalType": "address",
          "name": "_client",
          "type": "address"
        },
        {
          "internalType": "address payable",
          "name": "_freelancer",
          "type": "address"
        },
        {
          "internalType": "uint256",
          "name": "_projectId",
          "type": "uint256"
        },
        {
          "internalType": "string[]",
          "name": "_milestoneDescriptions",
          "type": "string[]"
        },
        {
          "internalType": "uint256[]",
          "name": "_milestoneAmounts",
          "type": "uint256[]"
        }
      ],
      "name": "createEscrow",
      "outputs": [
        {
          "internalType": "address",
          "name": "",
          "type": "address"
        }
      ],
      "stateMutability": "nonpayable",
      "type": "function"
    },
    {
      "inputs": [
        {
          "internalType": "uint256",
          "name": "",
          "type": "uint256"
        }
      ],
      "name": "deployedEscrows",
      "outputs": [
        {
          "internalType": "address",
          "name": "",
          "type": "address"
        }
      ],
      "stateMutability": "view",
      "type": "function"
    },
    {
      "inputs": [],
      "name": "getDeployedEscrows",
      "outputs": [
        {
          "internalType": "address[]",
          "name": "",
          "type": "address[]"
        }
      ],
      "stateMutability": "view",
      "type": "function"
    },
    {
      "inputs": [],
      "name": "owner",
      "outputs": [
        {
          "internalType": "address",
          "name": "",
          "type": "address"
        }
      ],
      "stateMutability": "view",
      "type": "function"
    },
    {
      "inputs": [
        {
          "internalType": "uint256",
          "name": "",
          "type": "uint256"
        }
      ],
      "name": "projectToEscrow",
      "outputs": [
        {
          "internalType": "address",
          "name": "",
          "type": "address"
        }
      ],
      "stateMutability": "view",
      "type": "function"
    },
    {
      "inputs": [],
      "name": "renounceOwnership",
      "outputs": [],
      "stateMutability": "nonpayable",
      "type": "function"
    },
    {
      "inputs": [
        {
          "internalType": "address",
          "name": "newOwner",
          "type": "address"
        }
      ],
      "name": "transferOwnership",
      "outputs": [],
      "stateMutability": "nonpayable",
      "type": "function"
    }
  ],
  "bytecode": "0x608060405234801561001057600080fd5b5061002d61002261003260201b60201c565b61003a60201b60201c565b6100fe565b600033905090565b60008060009054906101000a900473ffffffffffffffffffffffffffffffffffffffff169050816000806101000a81548173ffffffffffffffffffffffffffffffffffffffff021916908373ffffffffffffffffffffffffffffffffffffffff1602179055508173ffffffffffffffffffffffffffffffffffffffff168173ffffffffffffffffffffffffffffffffffffffff167f8be0079c531659141344cd1fd0a4f28419497f9722a3daafe3b4186f6b6457e060405160405180910390a35050565b6141d58061010d6000396000f3fe60806040523480156200001157600080fd5b5060043610620000885760003560e01c8063715018a61162000063578063715018a6146200012f5780638da5cb5b146200013b578063960a7101146200015d578063f2fde38b146200017f5762000088565b8063295cb449146200008d578063323f114214620000c3578063713fc70614620000f9575b600080fd5b620000ab6004803603810190620000a5919062000ba2565b6200019f565b604051620000ba919062000c79565b60405180910390f35b620000e16004803603810190620000db919062000c96565b62000448565b604051620000f0919062000c79565b60405180910390f35b62000117600480360381019062000111919062000c96565b62000488565b60405162000126919062000c79565b60405180910390f35b62000139620004bb565b005b62000145620004d3565b60405162000154919062000c79565b60405180910390f35b62000167620004fc565b60405162000176919062000d96565b60405180910390f35b6200019d600480360381019062000197919062000dba565b6200058c565b005b6000620001ab62000616565b600073ffffffffffffffffffffffffffffffffffffffff166002600086815260200190815260200160002060009054906101000a900473ffffffffffffffffffffffffffffffffffffffff1673ffffffffffffffffffffffffffffffffffffffff161462000250576040517f08c379a0000000000000000000000000000000000000000000000000000000008152600401620002479062000e73565b60405180910390fd5b600086868585604051620002649062000767565b620002739493929190620010cd565b604051809103906000f08015801562000290573d6000803e3d6000fd5b5090508073ffffffffffffffffffffffffffffffffffffffff1663f2fde38b306040518263ffffffff1660e01b8152600401620002ce919062000c79565b600060405180830381600087803b158015620002e957600080fd5b505af1158015620002fe573d6000803e3d6000fd5b5050505060008190506001819080600181540180825580915050600190039060005260206000200160009091909190916101000a81548173ffffffffffffffffffffffffffffffffffffffff021916908373ffffffffffffffffffffffffffffffffffffffff160217905550806002600088815260200190815260200160002060006101000a81548173ffffffffffffffffffffffffffffffffffffffff021916908373ffffffffffffffffffffffffffffffffffffffff1602179055508673ffffffffffffffffffffffffffffffffffffffff168873ffffffffffffffffffffffffffffffffffffffff168273ffffffffffffffffffffffffffffffffffffffff167fd99c67ae0185d6b0a36717d67d259f252914f7955744e4d81a91685ff480896d8960405162000432919062001139565b60405180910390a4809250505095945050505050565b600181815481106200045957600080fd5b906000526020600020016000915054906101000a900473ffffffffffffffffffffffffffffffffffffffff1681565b60026020528060005260406000206000915054906101000a900473ffffffffffffffffffffffffffffffffffffffff1681565b620004c562000616565b620004d160006200069b565b565b60008060009054906101000a900473ffffffffffffffffffffffffffffffffffffffff16905090565b606060018054806020026020016040519081016040528092919081815260200182805480156200058257602002820191906000526020600020905b8160009054906101000a900473ffffffffffffffffffffffffffffffffffffffff1673ffffffffffffffffffffffffffffffffffffffff168152602001906001019080831162000537575b5050505050905090565b6200059662000616565b600073ffffffffffffffffffffffffffffffffffffffff168173ffffffffffffffffffffffffffffffffffffffff160362000608576040517f08c379a0000000000000000000000000000000000000000000000000000000008152600401620005ff90620011cc565b60405180910390fd5b62000613816200069b565b50565b620006206200075f565b73ffffffffffffffffffffffffffffffffffffffff1662000640620004d3565b73ffffffffffffffffffffffffffffffffffffffff161462000699576040517f08c379a000000000000000000000000000000000000000000000000000000000815260040162000690906200123e565b60405180910390fd5b565b60008060009054906101000a900473ffffffffffffffffffffffffffffffffffffffff169050816000806101000a81548173ffffffffffffffffffffffffffffffffffffffff021916908373ffffffffffffffffffffffffffffffffffffffff1602179055508173ffffffffffffffffffffffffffffffffffffffff168173ffffffffffffffffffffffffffffffffffffffff167f8be0079c531659141344cd1fd0a4f28419497f9722a3daafe3b4186f6b6457e060405160405180910390a35050565b600033905090565b612f3f806200126183390190565b6000604051905090565b600080fd5b600080fd5b600073ffffffffffffffffffffffffffffffffffffffff82169050919050565b6000620007b68262000789565b9050919050565b620007c881620007a9565b8114620007d457600080fd5b50565b600081359050620007e881620007bd565b92915050565b6000620007fb8262000789565b9050919050565b6200080d81620007ee565b81146200081957600080fd5b50565b6000813590506200082d8162000802565b92915050565b6000819050919050565b620008488162000833565b81146200085457600080fd5b50565b60008135905062000868816200083d565b92915050565b600080fd5b6000601f19601f8301169050919050565b7f4e487b7100000000000000000000000000000000000000000000000000000000600052604160045260246000fd5b620008be8262000873565b810181811067ffffffffffffffff82111715620008e057620008df62000884565b5b80604052505050565b6000620008f562000775565b9050620009038282620008b3565b919050565b600067ffffffffffffffff82111562000926576200092562000884565b5b602082029050602081019050919050565b600080fd5b600080fd5b600067ffffffffffffffff8211156200095f576200095e62000884565b5b6200096a8262000873565b9050602081019050919050565b82818337600083830152505050565b60006200099d620009978462000941565b620008e9565b905082815260208101848484011115620009bc57620009bb6200093c565b5b620009c984828562000977565b509392505050565b600082601f830112620009e957620009e86200086e565b5b8135620009fb84826020860162000986565b91505092915050565b600062000a1b62000a158462000908565b620008e9565b9050808382526020820190506020840283018581111562000a415762000a4062000937565b5b835b8181101562000a8f57803567ffffffffffffffff81111562000a6a5762000a696200086e565b5b80860162000a798982620009d1565b8552602085019450505060208101905062000a43565b5050509392505050565b600082601f83011262000ab15762000ab06200086e565b5b813562000ac384826020860162000a04565b91505092915050565b600067ffffffffffffffff82111562000aea5762000ae962000884565b5b602082029050602081019050919050565b600062000b1262000b0c8462000acc565b620008e9565b9050808382526020820190506020840283018581111562000b385762000b3762000937565b5b835b8181101562000b65578062000b50888262000857565b84526020840193505060208101905062000b3a565b5050509392505050565b600082601f83011262000b875762000b866200086e565b5b813562000b9984826020860162000afb565b91505092915050565b600080600080600060a0868803121562000bc15762000bc06200077f565b5b600062000bd188828901620007d7565b955050602062000be4888289016200081c565b945050604062000bf78882890162000857565b935050606086013567ffffffffffffffff81111562000c1b5762000c1a62000784565b5b62000c298882890162000a99565b925050608086013567ffffffffffffffff81111562000c4d5762000c4c62000784565b5b62000c5b8882890162000b6f565b9150509295509295909350565b62000c7381620007a9565b82525050565b600060208201905062000c90600083018462000c68565b92915050565b60006020828403121562000caf5762000cae6200077f565b5b600062000cbf8482850162000857565b91505092915050565b600081519050919050565b600082825260208201905092915050565b6000819050602082019050919050565b62000cff81620007a9565b82525050565b600062000d13838362000cf4565b60208301905092915050565b6000602082019050919050565b600062000d398262000cc8565b62000d45818562000cd3565b935062000d528362000ce4565b8060005b8381101562000d8957815162000d6d888262000d05565b975062000d7a8362000d1f565b92505060018101905062000d56565b5085935050505092915050565b6000602082019050818103600083015262000db2818462000d2c565b905092915050565b60006020828403121562000dd35762000dd26200077f565b5b600062000de384828501620007d7565b91505092915050565b600082825260208201905092915050565b7f457363726f7720616c72656164792065786973747320666f722074686973207060008201527f726f6a6563740000000000000000000000000000000000000000000000000000602082015250565b600062000e5b60268362000dec565b915062000e688262000dfd565b604082019050919050565b6000602082019050818103600083015262000e8e8162000e4c565b9050919050565b62000ea081620007ee565b82525050565b600081519050919050565b600082825260208201905092915050565b6000819050602082019050919050565b600081519050919050565b600082825260208201905092915050565b60005b8381101562000f0e57808201518184015260208101905062000ef1565b60008484015250505050565b600062000f278262000ed2565b62000f33818562000edd565b935062000f4581856020860162000eee565b62000f508162000873565b840191505092915050565b600062000f69838362000f1a565b905092915050565b6000602082019050919050565b600062000f8b8262000ea6565b62000f97818562000eb1565b93508360208202850162000fab8562000ec2565b8060005b8581101562000fed578484038952815162000fcb858262000f5b565b945062000fd88362000f71565b925060208a0199505060018101905062000faf565b50829750879550505050505092915050565b600081519050919050565b600082825260208201905092915050565b6000819050602082019050919050565b620010368162000833565b82525050565b60006200104a83836200102b565b60208301905092915050565b6000602082019050919050565b6000620010708262000fff565b6200107c81856200100a565b935062001089836200101b565b8060005b83811015620010c0578151620010a488826200103c565b9750620010b18362001056565b9250506001810190506200108d565b5085935050505092915050565b6000608082019050620010e4600083018762000c68565b620010f3602083018662000e95565b818103604083015262001107818562000f7e565b905081810360608301526200111d818462001063565b905095945050505050565b620011338162000833565b82525050565b600060208201905062001150600083018462001128565b92915050565b7f4f776e61626c653a206e6577206f776e657220697320746865207a65726f206160008201527f6464726573730000000000000000000000000000000000000000000000000000602082015250565b6000620011b460268362000dec565b9150620011c18262001156565b604082019050919050565b60006020820190508181036000830152620011e781620011a5565b9050919050565b7f4f776e61626c653a2063616c6c6572206973206e6f7420746865206f776e6572600082015250565b60006200122660208362000dec565b91506200123382620011ee565b602082019050919050565b60006020820190508181036000830152620012598162001217565b905091905056fe60806040523480156200001157600080fd5b5060405162002f3f38038062002f3f8339818101604052810190620000379190620007c2565b60016000819055506200005f62000053620002aa60201b60201c565b620002b260201b60201c565b8051825114620000a6576040517f08c379a00000000000000000000000000000000000000000000000000000000081526004016200009d90620008d3565b60405180910390fd5b83600260006101000a81548173ffffffffffffffffffffffffffffffffffffffff021916908373ffffffffffffffffffffffffffffffffffffffff16021790555082600360006101000a81548173ffffffffffffffffffffffffffffffffffffffff021916908373ffffffffffffffffffffffffffffffffffffffff1602179055506000600360146101000a81548160ff02191690836005811115620001515762000150620008f5565b5b02179055506000805b835181101562000297576005604051806080016040528086848151811062000187576200018662000924565b5b60200260200101518152602001858481518110620001aa57620001a962000924565b5b60200260200101518152602001600015158152602001600015158152509080600181540180825580915050600190039060005260206000209060030201600090919091909150600082015181600001908162000207919062000b94565b506020820151816001015560408201518160020160006101000a81548160ff02191690831515021790555060608201518160020160016101000a81548160ff02191690831515021790555050508281815181106200026a576200026962000924565b5b6020026020010151826200027f919062000caa565b915080806200028e9062000ce5565b9150506200015a565b5080600481905550505050505062000d32565b600033905090565b6000600160009054906101000a900473ffffffffffffffffffffffffffffffffffffffff16905081600160006101000a81548173ffffffffffffffffffffffffffffffffffffffff021916908373ffffffffffffffffffffffffffffffffffffffff1602179055508173ffffffffffffffffffffffffffffffffffffffff168173ffffffffffffffffffffffffffffffffffffffff167f8be0079c531659141344cd1fd0a4f28419497f9722a3daafe3b4186f6b6457e060405160405180910390a35050565b6000604051905090565b600080fd5b600080fd5b600073ffffffffffffffffffffffffffffffffffffffff82169050919050565b6000620003b9826200038c565b9050919050565b620003cb81620003ac565b8114620003d757600080fd5b50565b600081519050620003eb81620003c0565b92915050565b6000620003fe826200038c565b9050919050565b6200041081620003f1565b81146200041c57600080fd5b50565b600081519050620004308162000405565b92915050565b600080fd5b6000601f19601f8301169050919050565b7f4e487b7100000000000000000000000000000000000000000000000000000000600052604160045260246000fd5b62000486826200043b565b810181811067ffffffffffffffff82111715620004a857620004a76200044c565b5b80604052505050565b6000620004bd62000378565b9050620004cb82826200047b565b919050565b600067ffffffffffffffff821115620004ee57620004ed6200044c565b5b602082029050602081019050919050565b600080fd5b600080fd5b600067ffffffffffffffff8211156200052757620005266200044c565b5b62000532826200043b565b9050602081019050919050565b60005b838110156200055f57808201518184015260208101905062000542565b60008484015250505050565b6000620005826200057c8462000509565b620004b1565b905082815260208101848484011115620005a157620005a062000504565b5b620005ae8482856200053f565b509392505050565b600082601f830112620005ce57620005cd62000436565b5b8151620005e08482602086016200056b565b91505092915050565b600062000600620005fa84620004d0565b620004b1565b90508083825260208201905060208402830185811115620006265762000625620004ff565b5b835b818110156200067457805167ffffffffffffffff8111156200064f576200064e62000436565b5b8086016200065e8982620005b6565b8552602085019450505060208101905062000628565b5050509392505050565b600082601f83011262000696576200069562000436565b5b8151620006a8848260208601620005e9565b91505092915050565b600067ffffffffffffffff821115620006cf57620006ce6200044c565b5b602082029050602081019050919050565b6000819050919050565b620006f581620006e0565b81146200070157600080fd5b50565b6000815190506200071581620006ea565b92915050565b6000620007326200072c84620006b1565b620004b1565b90508083825260208201905060208402830185811115620007585762000757620004ff565b5b835b8181101562000785578062000770888262000704565b8452602084019350506020810190506200075a565b5050509392505050565b600082601f830112620007a757620007a662000436565b5b8151620007b98482602086016200071b565b91505092915050565b60008060008060808587031215620007df57620007de62000382565b5b6000620007ef87828801620003da565b945050602062000802878288016200041f565b935050604085015167ffffffffffffffff81111562000826576200082562000387565b5b62000834878288016200067e565b925050606085015167ffffffffffffffff81111562000858576200085762000387565b5b62000866878288016200078f565b91505092959194509250565b600082825260208201905092915050565b7f4d69736d617463686564206d696c6573746f6e65206461746100000000000000600082015250565b6000620008bb60198362000872565b9150620008c88262000883565b602082019050919050565b60006020820190508181036000830152620008ee81620008ac565b9050919050565b7f4e487b7100000000000000000000000000000000000000000000000000000000600052602160045260246000fd5b7f4e487b7100000000000000000000000000000000000000000000000000000000600052603260045260246000fd5b600081519050919050565b7f4e487b7100000000000000000000000000000000000000000000000000000000600052602260045260246000fd5b60006002820490506001821680620009a657607f821691505b602082108103620009bc57620009bb6200095e565b5b50919050565b60008190508160005260206000209050919050565b60006020601f8301049050919050565b600082821b905092915050565b60006008830262000a267fffffffffffffffffffffffffffffffffffffffffffffffffffffffffffffffff82620009e7565b62000a328683620009e7565b95508019841693508086168417925050509392505050565b6000819050919050565b600062000a7562000a6f62000a6984620006e0565b62000a4a565b620006e0565b9050919050565b6000819050919050565b62000a918362000a54565b62000aa962000aa08262000a7c565b848454620009f4565b825550505050565b600090565b62000ac062000ab1565b62000acd81848462000a86565b505050565b5b8181101562000af55762000ae960008262000ab6565b60018101905062000ad3565b5050565b601f82111562000b445762000b0e81620009c2565b62000b1984620009d7565b8101602085101562000b29578190505b62000b4162000b3885620009d7565b83018262000ad2565b50505b505050565b600082821c905092915050565b600062000b696000198460080262000b49565b1980831691505092915050565b600062000b84838362000b56565b9150826002028217905092915050565b62000b9f8262000953565b67ffffffffffffffff81111562000bbb5762000bba6200044c565b5b62000bc782546200098d565b62000bd482828562000af9565b600060209050601f83116001811462000c0c576000841562000bf7578287015190505b62000c03858262000b76565b86555062000c73565b601f19841662000c1c86620009c2565b60005b8281101562000c465784890151825560018201915060208501945060208101905062000c1f565b8683101562000c66578489015162000c62601f89168262000b56565b8355505b6001600288020188555050505b505050505050565b7f4e487b7100000000000000000000000000000000000000000000000000000000600052601160045260246000fd5b600062000cb782620006e0565b915062000cc483620006e0565b925082820190508082111562000cdf5762000cde62000c7b565b5b92915050565b600062000cf282620006e0565b91507fffffffffffffffffffffffffffffffffffffffffffffffffffffffffffffffff820362000d275762000d2662000c7b565b5b600182019050919050565b6121fd8062000d426000396000f3fe6080604052600436106100e85760003560e01c8063715018a61161008a578063c2b7b86811610059578063c2b7b86814610274578063d0e30db01461029d578063e89e4ed6146102a7578063f2fde38b146102e7576100e8565b8063715018a6146101f05780638da5cb5b14610207578063a37dda2c14610232578063b9a29a4a1461025d576100e8565b8063200d2ed2116100c6578063200d2ed21461016e578063317debf51461019957806335c7ac49146101c25780636daa2d44146101d9576100e8565b8063026d0518146100ed578063109e94cf146101185780631a39d8ef14610143575b600080fd5b3480156100f957600080fd5b50610102610310565b60405161010f91906115ad565b60405180910390f35b34801561012457600080fd5b5061012d610316565b60405161013a9190611609565b60405180910390f35b34801561014f57600080fd5b5061015861033c565b60405161016591906115ad565b60405180910390f35b34801561017a57600080fd5b50610183610342565b604051610190919061169b565b60405180910390f35b3480156101a557600080fd5b506101c060048036038101906101bb91906116e7565b610355565b005b3480156101ce57600080fd5b506101d76107d8565b005b3480156101e557600080fd5b506101ee610950565b005b3480156101fc57600080fd5b50610205610aa8565b005b34801561021357600080fd5b5061021c610abc565b6040516102299190611609565b60405180910390f35b34801561023e57600080fd5b50610247610ae6565b6040516102549190611735565b60405180910390f35b34801561026957600080fd5b50610272610b0c565b005b34801561028057600080fd5b5061029b600480360381019061029691906116e7565b610d63565b005b6102a561103f565b005b3480156102b357600080fd5b506102ce60048036038101906102c991906116e7565b61128a565b6040516102de94939291906117fb565b60405180910390f35b3480156102f357600080fd5b5061030e60048036038101906103099190611873565b61136c565b005b60065481565b600260009054906101000a900473ffffffffffffffffffffffffffffffffffffffff1681565b60045481565b600360149054906101000a900460ff1681565b600260009054906101000a900473ffffffffffffffffffffffffffffffffffffffff1673ffffffffffffffffffffffffffffffffffffffff163373ffffffffffffffffffffffffffffffffffffffff16146103e5576040517f08c379a00000000000000000000000000000000000000000000000000000000081526004016103dc90611912565b60405180910390fd5b6103ed6113ef565b6001600581111561040157610400611624565b5b600360149054906101000a900460ff16600581111561042357610422611624565b5b148061046257506002600581111561043e5761043d611624565b5b600360149054906101000a900460ff1660058111156104605761045f611624565b5b145b6104a1576040517f08c379a0000000000000000000000000000000000000000000000000000000008152600401610498906119a4565b60405180910390fd5b60058054905081106104e8576040517f08c379a00000000000000000000000000000000000000000000000000000000081526004016104df90611a10565b60405180910390fd5b6000600582815481106104fe576104fd611a30565b5b906000526020600020906003020190508060020160009054906101000a900460ff1661055f576040517f08c379a000000000000000000000000000000000000000000000000000000000815260040161055690611aab565b60405180910390fd5b8060020160019054906101000a900460ff16156105b1576040517f08c379a00000000000000000000000000000000000000000000000000000000081526004016105a890611b17565b60405180910390fd5b6002600360146101000a81548160ff021916908360058111156105d7576105d6611624565b5b021790555060018160020160016101000a81548160ff0219169083151502179055506006600081548092919061060c90611b66565b91905055506000600360009054906101000a900473ffffffffffffffffffffffffffffffffffffffff1673ffffffffffffffffffffffffffffffffffffffff16826001015460405161065d90611bdf565b60006040518083038185875af1925050503d806000811461069a576040519150601f19603f3d011682016040523d82523d6000602084013e61069f565b606091505b50509050806106e3576040517f08c379a00000000000000000000000000000000000000000000000000000000081526004016106da90611c40565b60405180910390fd5b7f1b7218c0ac23ea9cbe4df603d2b340fbf469a115b73ea3d11460727f445d6be1838360010154604051610718929190611c60565b60405180910390a1600580549050600654036107cb5760038060146101000a81548160ff0219169083600581111561075357610752611624565b5b0217905550600360009054906101000a900473ffffffffffffffffffffffffffffffffffffffff1673ffffffffffffffffffffffffffffffffffffffff167f221c08a06b07a64803b3787861a3f276212fcccb51c2e6234077a9b8cb13047a6004546040516107c291906115ad565b60405180910390a25b50506107d561143e565b50565b600360009054906101000a900473ffffffffffffffffffffffffffffffffffffffff1673ffffffffffffffffffffffffffffffffffffffff163373ffffffffffffffffffffffffffffffffffffffff1614610868576040517f08c379a000000000000000000000000000000000000000000000000000000000815260040161085f90611cfb565b60405180910390fd5b600080600581111561087d5761087c611624565b5b600360149054906101000a900460ff16600581111561089f5761089e611624565b5b146108df576040517f08c379a00000000000000000000000000000000000000000000000000000000081526004016108d690611d67565b60405180910390fd5b6005600360146101000a81548160ff0219169083600581111561090557610904611624565b5b02179055503373ffffffffffffffffffffffffffffffffffffffff167fb4c92cd357fec6bf95b165499ff19fe07c668a89794a0d12ba96ea321fa34b1360405160405180910390a250565b600260009054906101000a900473ffffffffffffffffffffffffffffffffffffffff1673ffffffffffffffffffffffffffffffffffffffff163373ffffffffffffffffffffffffffffffffffffffff1614806109f95750600360009054906101000a900473ffffffffffffffffffffffffffffffffffffffff1673ffffffffffffffffffffffffffffffffffffffff163373ffffffffffffffffffffffffffffffffffffffff16145b610a38576040517f08c379a0000000000000000000000000000000000000000000000000000000008152600401610a2f90611dd3565b60405180910390fd5b6004600360146101000a81548160ff02191690836005811115610a5e57610a5d611624565b5b02179055503373ffffffffffffffffffffffffffffffffffffffff167f695fbf2fe28b4fde5705122279ffc4160ebfc0f45e4d96f7e6699001be5062ef60405160405180910390a2565b610ab0611448565b610aba60006114c6565b565b6000600160009054906101000a900473ffffffffffffffffffffffffffffffffffffffff16905090565b600360009054906101000a900473ffffffffffffffffffffffffffffffffffffffff1681565b600260009054906101000a900473ffffffffffffffffffffffffffffffffffffffff1673ffffffffffffffffffffffffffffffffffffffff163373ffffffffffffffffffffffffffffffffffffffff1614610b9c576040517f08c379a0000000000000000000000000000000000000000000000000000000008152600401610b9390611912565b60405180910390fd5b6001806005811115610bb157610bb0611624565b5b600360149054906101000a900460ff166005811115610bd357610bd2611624565b5b14610c13576040517f08c379a0000000000000000000000000000000000000000000000000000000008152600401610c0a90611d67565b60405180910390fd5b610c1b6113ef565b6005600360146101000a81548160ff02191690836005811115610c4157610c40611624565b5b02179055506000600260009054906101000a900473ffffffffffffffffffffffffffffffffffffffff1673ffffffffffffffffffffffffffffffffffffffff1647604051610c8e90611bdf565b60006040518083038185875af1925050503d8060008114610ccb576040519150601f19603f3d011682016040523d82523d6000602084013e610cd0565b606091505b5050905080610d14576040517f08c379a0000000000000000000000000000000000000000000000000000000008152600401610d0b90611e3f565b60405180910390fd5b3373ffffffffffffffffffffffffffffffffffffffff167fb4c92cd357fec6bf95b165499ff19fe07c668a89794a0d12ba96ea321fa34b1360405160405180910390a250610d6061143e565b50565b610d6b611448565b6004806005811115610d8057610d7f611624565b5b600360149054906101000a900460ff166005811115610da257610da1611624565b5b14610de2576040517f08c379a0000000000000000000000000000000000000000000000000000000008152600401610dd990611d67565b60405180910390fd5b610dea6113ef565b60008247610df89190611e5f565b90506000600360009054906101000a900473ffffffffffffffffffffffffffffffffffffffff1673ffffffffffffffffffffffffffffffffffffffff1684604051610e4290611bdf565b60006040518083038185875af1925050503d8060008114610e7f576040519150601f19603f3d011682016040523d82523d6000602084013e610e84565b606091505b5050905080610ec8576040517f08c379a0000000000000000000000000000000000000000000000000000000008152600401610ebf90611edf565b60405180910390fd5b6000600260009054906101000a900473ffffffffffffffffffffffffffffffffffffffff1673ffffffffffffffffffffffffffffffffffffffff1683604051610f1090611bdf565b60006040518083038185875af1925050503d8060008114610f4d576040519150601f19603f3d011682016040523d82523d6000602084013e610f52565b606091505b5050905080610f96576040517f08c379a0000000000000000000000000000000000000000000000000000000008152600401610f8d90611f4b565b60405180910390fd5b60038060146101000a81548160ff02191690836005811115610fbb57610fba611624565b5b0217905550600360009054906101000a900473ffffffffffffffffffffffffffffffffffffffff1673ffffffffffffffffffffffffffffffffffffffff167f221c08a06b07a64803b3787861a3f276212fcccb51c2e6234077a9b8cb13047a8660405161102891906115ad565b60405180910390a250505061103b61143e565b5050565b600260009054906101000a900473ffffffffffffffffffffffffffffffffffffffff1673ffffffffffffffffffffffffffffffffffffffff163373ffffffffffffffffffffffffffffffffffffffff16146110cf576040517f08c379a00000000000000000000000000000000000000000000000000000000081526004016110c690611912565b60405180910390fd5b60008060058111156110e4576110e3611624565b5b600360149054906101000a900460ff16600581111561110657611105611624565b5b14611146576040517f08c379a000000000000000000000000000000000000000000000000000000000815260040161113d90611d67565b60405180910390fd5b600454341461118a576040517f08c379a000000000000000000000000000000000000000000000000000000000815260040161118190611fdd565b60405180910390fd5b6001600360146101000a81548160ff021916908360058111156111b0576111af611624565b5b021790555060005b600580549050811015611216576001600582815481106111db576111da611a30565b5b906000526020600020906003020160020160006101000a81548160ff021916908315150217905550808061120e90611b66565b9150506111b8565b50600260009054906101000a900473ffffffffffffffffffffffffffffffffffffffff1673ffffffffffffffffffffffffffffffffffffffff167fb62507e17081251caebef6bd9ffe752e06ced8d3f52e51076987343a5be4feaa3460405161127f91906115ad565b60405180910390a250565b6005818154811061129a57600080fd5b90600052602060002090600302016000915090508060000180546112bd9061202c565b80601f01602080910402602001604051908101604052809291908181526020018280546112e99061202c565b80156113365780601f1061130b57610100808354040283529160200191611336565b820191906000526020600020905b81548152906001019060200180831161131957829003601f168201915b5050505050908060010154908060020160009054906101000a900460ff16908060020160019054906101000a900460ff16905084565b611374611448565b600073ffffffffffffffffffffffffffffffffffffffff168173ffffffffffffffffffffffffffffffffffffffff16036113e3576040517f08c379a00000000000000000000000000000000000000000000000000000000081526004016113da906120cf565b60405180910390fd5b6113ec816114c6565b50565b600260005403611434576040517f08c379a000000000000000000000000000000000000000000000000000000000815260040161142b9061213b565b60405180910390fd5b6002600081905550565b6001600081905550565b61145061158c565b73ffffffffffffffffffffffffffffffffffffffff1661146e610abc565b73ffffffffffffffffffffffffffffffffffffffff16146114c4576040517f08c379a00000000000000000000000000000000000000000000000000000000081526004016114bb906121a7565b60405180910390fd5b565b6000600160009054906101000a900473ffffffffffffffffffffffffffffffffffffffff16905081600160006101000a81548173ffffffffffffffffffffffffffffffffffffffff021916908373ffffffffffffffffffffffffffffffffffffffff1602179055508173ffffffffffffffffffffffffffffffffffffffff168173ffffffffffffffffffffffffffffffffffffffff167f8be0079c531659141344cd1fd0a4f28419497f9722a3daafe3b4186f6b6457e060405160405180910390a35050565b600033905090565b6000819050919050565b6115a781611594565b82525050565b60006020820190506115c2600083018461159e565b92915050565b600073ffffffffffffffffffffffffffffffffffffffff82169050919050565b60006115f3826115c8565b9050919050565b611603816115e8565b82525050565b600060208201905061161e60008301846115fa565b92915050565b7f4e487b7100000000000000000000000000000000000000000000000000000000600052602160045260246000fd5b6006811061166457611663611624565b5b50565b600081905061167582611653565b919050565b600061168582611667565b9050919050565b6116958161167a565b82525050565b60006020820190506116b0600083018461168c565b92915050565b600080fd5b6116c481611594565b81146116cf57600080fd5b50565b6000813590506116e1816116bb565b92915050565b6000602082840312156116fd576116fc6116b6565b5b600061170b848285016116d2565b91505092915050565b600061171f826115c8565b9050919050565b61172f81611714565b82525050565b600060208201905061174a6000830184611726565b92915050565b600081519050919050565b600082825260208201905092915050565b60005b8381101561178a57808201518184015260208101905061176f565b60008484015250505050565b6000601f19601f8301169050919050565b60006117b282611750565b6117bc818561175b565b93506117cc81856020860161176c565b6117d581611796565b840191505092915050565b60008115159050919050565b6117f5816117e0565b82525050565b6000608082019050818103600083015261181581876117a7565b9050611824602083018661159e565b61183160408301856117ec565b61183e60608301846117ec565b95945050505050565b611850816115e8565b811461185b57600080fd5b50565b60008135905061186d81611847565b92915050565b600060208284031215611889576118886116b6565b5b60006118978482850161185e565b91505092915050565b7f4f6e6c792074686520636c69656e742063616e2063616c6c207468697320667560008201527f6e6374696f6e2e00000000000000000000000000000000000000000000000000602082015250565b60006118fc60278361175b565b9150611907826118a0565b604082019050919050565b6000602082019050818103600083015261192b816118ef565b9050919050565b7f436f6e7472616374206e6f7420696e20612072656c65617361626c652073746160008201527f74652e0000000000000000000000000000000000000000000000000000000000602082015250565b600061198e60238361175b565b915061199982611932565b604082019050919050565b600060208201905081810360008301526119bd81611981565b9050919050565b7f496e76616c6964206d696c6573746f6e652049442e0000000000000000000000600082015250565b60006119fa60158361175b565b9150611a05826119c4565b602082019050919050565b60006020820190508181036000830152611a29816119ed565b9050919050565b7f4e487b7100000000000000000000000000000000000000000000000000000000600052603260045260246000fd5b7f4d696c6573746f6e65206e6f742066756e6465642e0000000000000000000000600082015250565b6000611a9560158361175b565b9150611aa082611a5f565b602082019050919050565b60006020820190508181036000830152611ac481611a88565b9050919050565b7f4d696c6573746f6e6520616c72656164792072656c65617365642e0000000000600082015250565b6000611b01601b8361175b565b9150611b0c82611acb565b602082019050919050565b60006020820190508181036000830152611b3081611af4565b9050919050565b7f4e487b7100000000000000000000000000000000000000000000000000000000600052601160045260246000fd5b6000611b7182611594565b91507fffffffffffffffffffffffffffffffffffffffffffffffffffffffffffffffff8203611ba357611ba2611b37565b5b600182019050919050565b600081905092915050565b50565b6000611bc9600083611bae565b9150611bd482611bb9565b600082019050919050565b6000611bea82611bbc565b9150819050919050565b7f4661696c656420746f2073656e642066756e64732e0000000000000000000000600082015250565b6000611c2a60158361175b565b9150611c3582611bf4565b602082019050919050565b60006020820190508181036000830152611c5981611c1d565b9050919050565b6000604082019050611c75600083018561159e565b611c82602083018461159e565b9392505050565b7f4f6e6c792074686520667265656c616e6365722063616e2063616c6c2074686960008201527f732066756e6374696f6e2e000000000000000000000000000000000000000000602082015250565b6000611ce5602b8361175b565b9150611cf082611c89565b604082019050919050565b60006020820190508181036000830152611d1481611cd8565b9050919050565b7f496e76616c69642073746174757320666f72207468697320616374696f6e2e00600082015250565b6000611d51601f8361175b565b9150611d5c82611d1b565b602082019050919050565b60006020820190508181036000830152611d8081611d44565b9050919050565b7f4f6e6c7920706172746965732063616e20726169736520646973707574650000600082015250565b6000611dbd601e8361175b565b9150611dc882611d87565b602082019050919050565b60006020820190508181036000830152611dec81611db0565b9050919050565b7f4661696c656420746f2073656e6420726566756e642e00000000000000000000600082015250565b6000611e2960168361175b565b9150611e3482611df3565b602082019050919050565b60006020820190508181036000830152611e5881611e1c565b9050919050565b6000611e6a82611594565b9150611e7583611594565b9250828203905081811115611e8d57611e8c611b37565b5b92915050565b7f4661696c656420746f2070617920667265656c616e6365722e00000000000000600082015250565b6000611ec960198361175b565b9150611ed482611e93565b602082019050919050565b60006020820190508181036000830152611ef881611ebc565b9050919050565b7f4661696c656420746f20726566756e6420636c69656e742e0000000000000000600082015250565b6000611f3560188361175b565b9150611f4082611eff565b602082019050919050565b60006020820190508181036000830152611f6481611f28565b9050919050565b7f4d757374206465706f7369742074686520657861637420746f74616c20616d6f60008201527f756e742e00000000000000000000000000000000000000000000000000000000602082015250565b6000611fc760248361175b565b9150611fd282611f6b565b604082019050919050565b60006020820190508181036000830152611ff681611fba565b9050919050565b7f4e487b7100000000000000000000000000000000000000000000000000000000600052602260045260246000fd5b6000600282049050600182168061204457607f821691505b60208210810361205757612056611ffd565b5b50919050565b7f4f776e61626c653a206e6577206f776e657220697320746865207a65726f206160008201527f6464726573730000000000000000000000000000000000000000000000000000602082015250565b60006120b960268361175b565b91506120c48261205d565b604082019050919050565b600060208201905081810360008301526120e8816120ac565b9050919050565b7f5265656e7472616e637947756172643a207265656e7472616e742063616c6c00600082015250565b6000612125601f8361175b565b9150612130826120ef565b602082019050919050565b6000602082019050818103600083015261215481612118565b9050919050565b7f4f776e61626c653a2063616c6c6572206973206e6f7420746865206f776e6572600082015250565b600061219160208361175b565b915061219c8261215b565b602082019050919050565b600060208201905081810360008301526121c081612184565b905091905056fea2646970667358221220fdbf0b2ec9ff3be210c4678d2620427ea006a0537377207fed965c9d719d1c0164736f6c63430008110033a264697066735822122093e4859e2b80fa75d6d17bcda7d955ed44eea04b54d37bfc0aadbbe767c9880464736f6c63430008110033",
  "linkReferences": {},
  "deployedLinkReferences": {}
}